{
  "contractName": "InfluencerMarketingContract",
  "abi": [
    {
      "inputs": [
        {
          "internalType": "contract KOLCoin",
          "name": "_kolCoin",
          "type": "address"
        }
      ],
      "stateMutability": "nonpayable",
      "type": "constructor"
    },
    {
      "inputs": [],
      "name": "currBrandCom",
      "outputs": [
        {
          "internalType": "address payable",
          "name": "",
          "type": "address"
        }
      ],
      "stateMutability": "view",
      "type": "function",
      "constant": true
    },
    {
      "inputs": [],
      "name": "currContractRef",
      "outputs": [
        {
          "internalType": "string",
          "name": "",
          "type": "string"
        }
      ],
      "stateMutability": "view",
      "type": "function",
      "constant": true
    },
    {
      "inputs": [],
      "name": "currInfluencer",
      "outputs": [
        {
          "internalType": "address payable",
          "name": "",
          "type": "address"
        }
      ],
      "stateMutability": "view",
      "type": "function",
      "constant": true
    },
    {
      "inputs": [],
      "name": "currentContract",
      "outputs": [
        {
          "internalType": "address payable",
          "name": "brandCom",
          "type": "address"
        },
        {
          "internalType": "address payable",
          "name": "influencer",
          "type": "address"
        },
        {
          "internalType": "uint256",
          "name": "contractValue",
          "type": "uint256"
        },
        {
          "internalType": "bool",
          "name": "contractTerminated",
          "type": "bool"
        },
        {
          "internalType": "bool",
          "name": "brandComApproved",
          "type": "bool"
        },
        {
          "internalType": "bool",
          "name": "influencerApproved",
          "type": "bool"
        }
      ],
      "stateMutability": "view",
      "type": "function",
      "constant": true
    },
    {
      "inputs": [],
      "name": "kolCoin",
      "outputs": [
        {
          "internalType": "contract KOLCoin",
          "name": "",
          "type": "address"
        }
      ],
      "stateMutability": "view",
      "type": "function",
      "constant": true
    },
    {
      "inputs": [],
      "name": "owner",
      "outputs": [
        {
          "internalType": "address",
          "name": "",
          "type": "address"
        }
      ],
      "stateMutability": "view",
      "type": "function",
      "constant": true
    },
    {
      "inputs": [
        {
          "internalType": "string",
          "name": "_contractRef",
          "type": "string"
        },
        {
          "internalType": "address",
          "name": "_brandCom",
          "type": "address"
        },
        {
          "internalType": "address",
          "name": "_influencer",
          "type": "address"
        },
        {
          "internalType": "uint256",
          "name": "_value",
          "type": "uint256"
        }
      ],
      "name": "buildContract",
      "outputs": [],
      "stateMutability": "payable",
      "type": "function",
      "payable": true
    },
    {
      "inputs": [
        {
          "internalType": "string",
          "name": "_contractRef",
          "type": "string"
        }
      ],
      "name": "setCurrContract",
      "outputs": [],
      "stateMutability": "nonpayable",
      "type": "function"
    },
    {
      "inputs": [],
      "name": "approveContract",
      "outputs": [],
      "stateMutability": "nonpayable",
      "type": "function"
    },
    {
      "inputs": [],
      "name": "submitWork",
      "outputs": [],
      "stateMutability": "view",
      "type": "function",
      "constant": true
    },
    {
      "inputs": [
        {
          "internalType": "uint256",
          "name": "_amount",
          "type": "uint256"
        }
      ],
      "name": "releasePayment",
      "outputs": [],
      "stateMutability": "nonpayable",
      "type": "function"
    },
    {
      "inputs": [
        {
          "internalType": "string",
          "name": "contractRef",
          "type": "string"
        }
      ],
      "name": "getContractDetailsByRef",
      "outputs": [
        {
          "components": [
            {
              "internalType": "address payable",
              "name": "brandCom",
              "type": "address"
            },
            {
              "internalType": "address payable",
              "name": "influencer",
              "type": "address"
            },
            {
              "internalType": "uint256",
              "name": "contractValue",
              "type": "uint256"
            },
            {
              "internalType": "bool",
              "name": "contractTerminated",
              "type": "bool"
            },
            {
              "internalType": "bool",
              "name": "brandComApproved",
              "type": "bool"
            },
            {
              "internalType": "bool",
              "name": "influencerApproved",
              "type": "bool"
            }
          ],
          "internalType": "struct InfluencerMarketingContract.ContractDetails",
          "name": "",
          "type": "tuple"
        }
      ],
      "stateMutability": "view",
      "type": "function",
      "constant": true
    }
  ],
  "bytecode": "0x60806040523480156200001157600080fd5b5060405162001aae38038062001aae83398181016040528101906200003791906200013d565b80600860006101000a81548173ffffffffffffffffffffffffffffffffffffffff021916908373ffffffffffffffffffffffffffffffffffffffff160217905550336000806101000a81548173ffffffffffffffffffffffffffffffffffffffff021916908373ffffffffffffffffffffffffffffffffffffffff160217905550506200016f565b600080fd5b600073ffffffffffffffffffffffffffffffffffffffff82169050919050565b6000620000f182620000c4565b9050919050565b60006200010582620000e4565b9050919050565b6200011781620000f8565b81146200012357600080fd5b50565b60008151905062000137816200010c565b92915050565b600060208284031215620001565762000155620000bf565b5b6000620001668482850162000126565b91505092915050565b61192f806200017f6000396000f3fe6080604052600436106100a75760003560e01c80638da5cb5b116100645780638da5cb5b1461019b57806397ab6732146101c657806399dea2ba146101f1578063c7a257771461021c578063d15c8cd914610233578063f79b0f6b14610270576100a7565b8063135a6bc9146100ac5780633d487dfe146100d757806343d00d041461010257806350ebf37a14610119578063721d7d8e1461014257806388685cd914610172575b600080fd5b3480156100b857600080fd5b506100c161028c565b6040516100ce9190610da3565b60405180910390f35b3480156100e357600080fd5b506100ec6102b2565b6040516100f99190610e4e565b60405180910390f35b34801561010e57600080fd5b50610117610340565b005b34801561012557600080fd5b50610140600480360381019061013b9190610fb9565b610469565b005b34801561014e57600080fd5b506101576106cb565b60405161016996959493929190611036565b60405180910390f35b34801561017e57600080fd5b50610199600480360381019061019491906110c3565b61075c565b005b3480156101a757600080fd5b506101b06108e5565b6040516101bd9190611111565b60405180910390f35b3480156101d257600080fd5b506101db610909565b6040516101e89190610da3565b60405180910390f35b3480156101fd57600080fd5b5061020661092f565b604051610213919061118b565b60405180910390f35b34801561022857600080fd5b50610231610955565b005b34801561023f57600080fd5b5061025a60048036038101906102559190610fb9565b610a3a565b604051610267919061124e565b60405180910390f35b61028a60048036038101906102859190611295565b610b79565b005b600760009054906101000a900473ffffffffffffffffffffffffffffffffffffffff1681565b600180546102bf90611347565b80601f01602080910402602001604051908101604052809291908181526020018280546102eb90611347565b80156103385780601f1061030d57610100808354040283529160200191610338565b820191906000526020600020905b81548152906001019060200180831161031b57829003601f168201915b505050505081565b600660009054906101000a900473ffffffffffffffffffffffffffffffffffffffff1673ffffffffffffffffffffffffffffffffffffffff163373ffffffffffffffffffffffffffffffffffffffff16036103d5576001600960016040516103a8919061141b565b908152602001604051809103902060030160016101000a81548160ff021916908315150217905550610467565b600760009054906101000a900473ffffffffffffffffffffffffffffffffffffffff1673ffffffffffffffffffffffffffffffffffffffff163373ffffffffffffffffffffffffffffffffffffffff16036104665760016009600160405161043d919061141b565b908152602001604051809103902060030160026101000a81548160ff0219169083151502179055505b5b565b806001908161047891906115bf565b506009600160405161048a919061141b565b908152602001604051809103902060026000820160009054906101000a900473ffffffffffffffffffffffffffffffffffffffff168160000160006101000a81548173ffffffffffffffffffffffffffffffffffffffff021916908373ffffffffffffffffffffffffffffffffffffffff1602179055506001820160009054906101000a900473ffffffffffffffffffffffffffffffffffffffff168160010160006101000a81548173ffffffffffffffffffffffffffffffffffffffff021916908373ffffffffffffffffffffffffffffffffffffffff160217905550600282015481600201556003820160009054906101000a900460ff168160030160006101000a81548160ff0219169083151502179055506003820160019054906101000a900460ff168160030160016101000a81548160ff0219169083151502179055506003820160029054906101000a900460ff168160030160026101000a81548160ff021916908315150217905550905050600260000160009054906101000a900473ffffffffffffffffffffffffffffffffffffffff16600660006101000a81548173ffffffffffffffffffffffffffffffffffffffff021916908373ffffffffffffffffffffffffffffffffffffffff160217905550600260010160009054906101000a900473ffffffffffffffffffffffffffffffffffffffff16600760006101000a81548173ffffffffffffffffffffffffffffffffffffffff021916908373ffffffffffffffffffffffffffffffffffffffff16021790555050565b60028060000160009054906101000a900473ffffffffffffffffffffffffffffffffffffffff16908060010160009054906101000a900473ffffffffffffffffffffffffffffffffffffffff16908060020154908060030160009054906101000a900460ff16908060030160019054906101000a900460ff16908060030160029054906101000a900460ff16905086565b600660009054906101000a900473ffffffffffffffffffffffffffffffffffffffff1673ffffffffffffffffffffffffffffffffffffffff163373ffffffffffffffffffffffffffffffffffffffff16146107ec576040517f08c379a00000000000000000000000000000000000000000000000000000000081526004016107e390611703565b60405180910390fd5b600260030160009054906101000a900460ff161561083f576040517f08c379a00000000000000000000000000000000000000000000000000000000081526004016108369061176f565b60405180910390fd5b600860009054906101000a900473ffffffffffffffffffffffffffffffffffffffff1673ffffffffffffffffffffffffffffffffffffffff166323b872dd3330846040518463ffffffff1660e01b815260040161089e9392919061178f565b6020604051808303816000875af11580156108bd573d6000803e3d6000fd5b505050506040513d601f19601f820116820180604052508101906108e191906117f2565b5050565b60008054906101000a900473ffffffffffffffffffffffffffffffffffffffff1681565b600660009054906101000a900473ffffffffffffffffffffffffffffffffffffffff1681565b600860009054906101000a900473ffffffffffffffffffffffffffffffffffffffff1681565b600760009054906101000a900473ffffffffffffffffffffffffffffffffffffffff1673ffffffffffffffffffffffffffffffffffffffff163373ffffffffffffffffffffffffffffffffffffffff16146109e5576040517f08c379a00000000000000000000000000000000000000000000000000000000081526004016109dc90611891565b60405180910390fd5b600260030160009054906101000a900460ff1615610a38576040517f08c379a0000000000000000000000000000000000000000000000000000000008152600401610a2f9061176f565b60405180910390fd5b565b610a42610cfa565b600982604051610a5291906118e2565b90815260200160405180910390206040518060c00160405290816000820160009054906101000a900473ffffffffffffffffffffffffffffffffffffffff1673ffffffffffffffffffffffffffffffffffffffff1673ffffffffffffffffffffffffffffffffffffffff1681526020016001820160009054906101000a900473ffffffffffffffffffffffffffffffffffffffff1673ffffffffffffffffffffffffffffffffffffffff1673ffffffffffffffffffffffffffffffffffffffff168152602001600282015481526020016003820160009054906101000a900460ff161515151581526020016003820160019054906101000a900460ff161515151581526020016003820160029054906101000a900460ff1615151515815250509050919050565b6040518060c001604052808473ffffffffffffffffffffffffffffffffffffffff1681526020018373ffffffffffffffffffffffffffffffffffffffff16815260200182815260200160001515815260200160001515815260200160001515815250600985604051610beb91906118e2565b908152602001604051809103902060008201518160000160006101000a81548173ffffffffffffffffffffffffffffffffffffffff021916908373ffffffffffffffffffffffffffffffffffffffff16021790555060208201518160010160006101000a81548173ffffffffffffffffffffffffffffffffffffffff021916908373ffffffffffffffffffffffffffffffffffffffff1602179055506040820151816002015560608201518160030160006101000a81548160ff02191690831515021790555060808201518160030160016101000a81548160ff02191690831515021790555060a08201518160030160026101000a81548160ff02191690831515021790555090505050505050565b6040518060c00160405280600073ffffffffffffffffffffffffffffffffffffffff168152602001600073ffffffffffffffffffffffffffffffffffffffff168152602001600081526020016000151581526020016000151581526020016000151581525090565b600073ffffffffffffffffffffffffffffffffffffffff82169050919050565b6000610d8d82610d62565b9050919050565b610d9d81610d82565b82525050565b6000602082019050610db86000830184610d94565b92915050565b600081519050919050565b600082825260208201905092915050565b60005b83811015610df8578082015181840152602081019050610ddd565b60008484015250505050565b6000601f19601f8301169050919050565b6000610e2082610dbe565b610e2a8185610dc9565b9350610e3a818560208601610dda565b610e4381610e04565b840191505092915050565b60006020820190508181036000830152610e688184610e15565b905092915050565b6000604051905090565b600080fd5b600080fd5b600080fd5b600080fd5b7f4e487b7100000000000000000000000000000000000000000000000000000000600052604160045260246000fd5b610ec682610e04565b810181811067ffffffffffffffff82111715610ee557610ee4610e8e565b5b80604052505050565b6000610ef8610e70565b9050610f048282610ebd565b919050565b600067ffffffffffffffff821115610f2457610f23610e8e565b5b610f2d82610e04565b9050602081019050919050565b82818337600083830152505050565b6000610f5c610f5784610f09565b610eee565b905082815260208101848484011115610f7857610f77610e89565b5b610f83848285610f3a565b509392505050565b600082601f830112610fa057610f9f610e84565b5b8135610fb0848260208601610f49565b91505092915050565b600060208284031215610fcf57610fce610e7a565b5b600082013567ffffffffffffffff811115610fed57610fec610e7f565b5b610ff984828501610f8b565b91505092915050565b6000819050919050565b61101581611002565b82525050565b60008115159050919050565b6110308161101b565b82525050565b600060c08201905061104b6000830189610d94565b6110586020830188610d94565b611065604083018761100c565b6110726060830186611027565b61107f6080830185611027565b61108c60a0830184611027565b979650505050505050565b6110a081611002565b81146110ab57600080fd5b50565b6000813590506110bd81611097565b92915050565b6000602082840312156110d9576110d8610e7a565b5b60006110e7848285016110ae565b91505092915050565b60006110fb82610d62565b9050919050565b61110b816110f0565b82525050565b60006020820190506111266000830184611102565b92915050565b6000819050919050565b600061115161114c61114784610d62565b61112c565b610d62565b9050919050565b600061116382611136565b9050919050565b600061117582611158565b9050919050565b6111858161116a565b82525050565b60006020820190506111a0600083018461117c565b92915050565b6111af81610d82565b82525050565b6111be81611002565b82525050565b6111cd8161101b565b82525050565b60c0820160008201516111e960008501826111a6565b5060208201516111fc60208501826111a6565b50604082015161120f60408501826111b5565b50606082015161122260608501826111c4565b50608082015161123560808501826111c4565b5060a082015161124860a08501826111c4565b50505050565b600060c08201905061126360008301846111d3565b92915050565b611272816110f0565b811461127d57600080fd5b50565b60008135905061128f81611269565b92915050565b600080600080608085870312156112af576112ae610e7a565b5b600085013567ffffffffffffffff8111156112cd576112cc610e7f565b5b6112d987828801610f8b565b94505060206112ea87828801611280565b93505060406112fb87828801611280565b925050606061130c878288016110ae565b91505092959194509250565b7f4e487b7100000000000000000000000000000000000000000000000000000000600052602260045260246000fd5b6000600282049050600182168061135f57607f821691505b60208210810361137257611371611318565b5b50919050565b600081905092915050565b60008190508160005260206000209050919050565b600081546113a581611347565b6113af8186611378565b945060018216600081146113ca57600181146113df57611412565b60ff1983168652811515820286019350611412565b6113e885611383565b60005b8381101561140a578154818901526001820191506020810190506113eb565b838801955050505b50505092915050565b60006114278284611398565b915081905092915050565b60006020601f8301049050919050565b600082821b905092915050565b60006008830261147f7fffffffffffffffffffffffffffffffffffffffffffffffffffffffffffffffff82611442565b6114898683611442565b95508019841693508086168417925050509392505050565b60006114bc6114b76114b284611002565b61112c565b611002565b9050919050565b6000819050919050565b6114d6836114a1565b6114ea6114e2826114c3565b84845461144f565b825550505050565b600090565b6114ff6114f2565b61150a8184846114cd565b505050565b5b8181101561152e576115236000826114f7565b600181019050611510565b5050565b601f8211156115735761154481611383565b61154d84611432565b8101602085101561155c578190505b61157061156885611432565b83018261150f565b50505b505050565b600082821c905092915050565b600061159660001984600802611578565b1980831691505092915050565b60006115af8383611585565b9150826002028217905092915050565b6115c882610dbe565b67ffffffffffffffff8111156115e1576115e0610e8e565b5b6115eb8254611347565b6115f6828285611532565b600060209050601f8311600181146116295760008415611617578287015190505b61162185826115a3565b865550611689565b601f19841661163786611383565b60005b8281101561165f5784890151825560018201915060208501945060208101905061163a565b8683101561167c5784890151611678601f891682611585565b8355505b6001600288020188555050505b505050505050565b7f4f6e6c79206272616e6420636f6d70616e792063616e20706572666f726d207460008201527f68697320616374696f6e2e000000000000000000000000000000000000000000602082015250565b60006116ed602b83610dc9565b91506116f882611691565b604082019050919050565b6000602082019050818103600083015261171c816116e0565b9050919050565b7f436f6e747261637420686173206265656e207465726d696e617465642e000000600082015250565b6000611759601d83610dc9565b915061176482611723565b602082019050919050565b600060208201905081810360008301526117888161174c565b9050919050565b60006060820190506117a46000830186611102565b6117b16020830185611102565b6117be604083018461100c565b949350505050565b6117cf8161101b565b81146117da57600080fd5b50565b6000815190506117ec816117c6565b92915050565b60006020828403121561180857611807610e7a565b5b6000611816848285016117dd565b91505092915050565b7f4f6e6c7920696e666c75656e6365722063616e20706572666f726d207468697360008201527f20616374696f6e2e000000000000000000000000000000000000000000000000602082015250565b600061187b602883610dc9565b91506118868261181f565b604082019050919050565b600060208201905081810360008301526118aa8161186e565b9050919050565b60006118bc82610dbe565b6118c68185611378565b93506118d6818560208601610dda565b80840191505092915050565b60006118ee82846118b1565b91508190509291505056fea2646970667358221220304b95916f1ff4456b26124d4ef014106993ae025e82038e27c37da93467994d64736f6c63430008110033",
  "immutableReferences": {},
  "source": "pragma solidity >=0.4.22 <0.9.0;\r\n\r\nimport './KOLCoin.sol';\r\n\r\ncontract InfluencerMarketingContract {\r\n\r\n    address public owner;\r\n    string public currContractRef;\r\n    ContractDetails public currentContract;\r\n    address payable public currBrandCom;\r\n    address payable public currInfluencer;\r\n    KOLCoin public kolCoin;\r\n\r\n    struct ContractDetails {\r\n        address payable brandCom;\r\n        address payable influencer;\r\n        uint contractValue;\r\n        bool contractTerminated;\r\n        bool brandComApproved;\r\n        bool influencerApproved;\r\n    }\r\n\r\n    constructor(KOLCoin _kolCoin) {\r\n        kolCoin = _kolCoin;\r\n        owner = msg.sender;\r\n    }\r\n    \r\n    //id to contract\r\n    mapping(string => ContractDetails) private refToContractDetails;\r\n    \r\n    modifier onlybrandCom() {\r\n        require(msg.sender == currBrandCom, \"Only brand company can perform this action.\");\r\n        _;\r\n    }\r\n    \r\n    modifier onlyInfluencer() {\r\n        require(msg.sender == currInfluencer, \"Only influencer can perform this action.\");\r\n        _;\r\n    }\r\n\r\n    function buildContract(string memory _contractRef, address _brandCom, address _influencer, uint _value) public payable{\r\n        refToContractDetails[_contractRef] = ContractDetails({\r\n        brandCom: payable(_brandCom),\r\n        influencer: payable(_influencer),\r\n        contractValue: _value,\r\n        contractTerminated: false,\r\n        brandComApproved: false,\r\n        influencerApproved: false\r\n        });\r\n    }\r\n\r\n    function setCurrContract(string memory _contractRef) public{\r\n        currContractRef = _contractRef;\r\n        currentContract = refToContractDetails[currContractRef];\r\n        currBrandCom = currentContract.brandCom;\r\n        currInfluencer = currentContract.influencer;\r\n    }\r\n    \r\n    function approveContract() public {\r\n        if (msg.sender == currBrandCom) {\r\n            refToContractDetails[currContractRef].brandComApproved = true;\r\n        } else if (msg.sender == currInfluencer) {\r\n            refToContractDetails[currContractRef].influencerApproved = true;\r\n        }\r\n    }\r\n    \r\n    function submitWork() public onlyInfluencer view{\r\n        require(!currentContract.contractTerminated, \"Contract has been terminated.\");\r\n        // Perform work\r\n    }\r\n    \r\n    function releasePayment(uint _amount) public onlybrandCom {\r\n        require(!currentContract.contractTerminated, \"Contract has been terminated.\");\r\n        kolCoin.transferFrom(msg.sender, address(this), _amount);\r\n    }\r\n    \r\n    function getContractDetailsByRef(string memory contractRef) public view returns (ContractDetails memory) {\r\n        return refToContractDetails[contractRef];\r\n    }\r\n    \r\n}\r\n",
  "sourcePath": "C:\\Users\\Xin Le\\Documents\\IEEE NTU iNTUition\\d-creator\\backend\\contracts\\InfluencerMarketingContract.sol",
  "compiler": {
    "name": "solc",
    "version": "0.8.17+commit.8df45f5f.Emscripten.clang"
  },
  "schemaVersion": "3.4.12",
  "updatedAt": "2023-02-26T03:17:30.882Z",
  "networkType": "ethereum",
  "devdoc": {
    "kind": "dev",
    "methods": {},
    "version": 1
  },
  "userdoc": {
    "kind": "user",
    "methods": {},
    "version": 1
  }
}