{
  "contractName": "InfluencerMarketingContract",
  "abi": [
    {
      "inputs": [],
      "stateMutability": "nonpayable",
      "type": "constructor"
    },
    {
      "inputs": [],
      "name": "brandCom",
      "outputs": [
        {
          "internalType": "address payable",
          "name": "",
          "type": "address"
        }
      ],
      "stateMutability": "view",
      "type": "function",
      "constant": true
    },
    {
      "inputs": [],
      "name": "brandComApproved",
      "outputs": [
        {
          "internalType": "bool",
          "name": "",
          "type": "bool"
        }
      ],
      "stateMutability": "view",
      "type": "function",
      "constant": true
    },
    {
      "inputs": [],
      "name": "contractDuration",
      "outputs": [
        {
          "internalType": "uint256",
          "name": "",
          "type": "uint256"
        }
      ],
      "stateMutability": "view",
      "type": "function",
      "constant": true
    },
    {
      "inputs": [],
      "name": "contractRef",
      "outputs": [
        {
          "internalType": "bytes32",
          "name": "",
          "type": "bytes32"
        }
      ],
      "stateMutability": "view",
      "type": "function",
      "constant": true
    },
    {
      "inputs": [],
      "name": "contractTerminated",
      "outputs": [
        {
          "internalType": "bool",
          "name": "",
          "type": "bool"
        }
      ],
      "stateMutability": "view",
      "type": "function",
      "constant": true
    },
    {
      "inputs": [],
      "name": "contractValue",
      "outputs": [
        {
          "internalType": "uint256",
          "name": "",
          "type": "uint256"
        }
      ],
      "stateMutability": "view",
      "type": "function",
      "constant": true
    },
    {
      "inputs": [],
      "name": "influencer",
      "outputs": [
        {
          "internalType": "address payable",
          "name": "",
          "type": "address"
        }
      ],
      "stateMutability": "view",
      "type": "function",
      "constant": true
    },
    {
      "inputs": [],
      "name": "influencerApproved",
      "outputs": [
        {
          "internalType": "bool",
          "name": "",
          "type": "bool"
        }
      ],
      "stateMutability": "view",
      "type": "function",
      "constant": true
    },
    {
      "inputs": [
        {
          "internalType": "bytes32",
          "name": "_contractRef",
          "type": "bytes32"
        },
        {
          "internalType": "address payable",
          "name": "_influencer",
          "type": "address"
        },
        {
          "internalType": "uint256",
          "name": "_duration",
          "type": "uint256"
        },
        {
          "internalType": "uint256",
          "name": "_value",
          "type": "uint256"
        }
      ],
      "name": "buildContract",
      "outputs": [],
      "stateMutability": "nonpayable",
      "type": "function"
    },
    {
      "inputs": [],
      "name": "approveContract",
      "outputs": [],
      "stateMutability": "nonpayable",
      "type": "function"
    },
    {
      "inputs": [],
      "name": "terminateContract",
      "outputs": [],
      "stateMutability": "nonpayable",
      "type": "function"
    },
    {
      "inputs": [],
      "name": "submitWork",
      "outputs": [],
      "stateMutability": "payable",
      "type": "function",
      "payable": true
    },
    {
      "inputs": [],
      "name": "releasePayment",
      "outputs": [],
      "stateMutability": "nonpayable",
      "type": "function"
    },
    {
      "inputs": [],
      "name": "getContractDetails",
      "outputs": [
        {
          "internalType": "bytes32",
          "name": "",
          "type": "bytes32"
        },
        {
          "internalType": "address payable",
          "name": "",
          "type": "address"
        },
        {
          "internalType": "address payable",
          "name": "",
          "type": "address"
        },
        {
          "internalType": "uint256",
          "name": "",
          "type": "uint256"
        },
        {
          "internalType": "uint256",
          "name": "",
          "type": "uint256"
        },
        {
          "internalType": "bool",
          "name": "",
          "type": "bool"
        },
        {
          "internalType": "bool",
          "name": "",
          "type": "bool"
        },
        {
          "internalType": "bool",
          "name": "",
          "type": "bool"
        }
      ],
      "stateMutability": "view",
      "type": "function",
      "constant": true
    }
  ],
  "bytecode": "0x608060405234801561001057600080fd5b5033600160006101000a81548173ffffffffffffffffffffffffffffffffffffffff021916908373ffffffffffffffffffffffffffffffffffffffff160217905550610ee1806100616000396000f3fe6080604052600436106100dd5760003560e01c80639dfc91171161007f578063d116c8c411610059578063d116c8c41461024e578063e0dec0c014610265578063eff41ce514610290578063fdf04bf2146102bb576100dd565b80639dfc9117146101e7578063a87588e714610219578063c7a2577714610244576100dd565b806343d00d04116100bb57806343d00d041461014f5780636218bd24146101665780636a246e701461019157806375ca533f146101bc576100dd565b80631a2c2a2b146100e25780632b2813331461010d5780632fd949ca14610138575b600080fd5b3480156100ee57600080fd5b506100f76102e4565b60405161010491906109e5565b60405180910390f35b34801561011957600080fd5b506101226102f7565b60405161012f9190610a41565b60405180910390f35b34801561014457600080fd5b5061014d61031d565b005b34801561015b57600080fd5b50610164610433565b005b34801561017257600080fd5b5061017b610565565b60405161018891906109e5565b60405180910390f35b34801561019d57600080fd5b506101a6610578565b6040516101b39190610a75565b60405180910390f35b3480156101c857600080fd5b506101d161057e565b6040516101de9190610aa9565b60405180910390f35b3480156101f357600080fd5b506101fc610584565b604051610210989796959493929190610ac4565b60405180910390f35b34801561022557600080fd5b5061022e610629565b60405161023b9190610a41565b60405180910390f35b61024c61064f565b005b34801561025a57600080fd5b506102636107b9565b005b34801561027157600080fd5b5061027a610904565b6040516102879190610a75565b60405180910390f35b34801561029c57600080fd5b506102a561090a565b6040516102b291906109e5565b60405180910390f35b3480156102c757600080fd5b506102e260048036038101906102dd9190610bcb565b61091d565b005b600560009054906101000a900460ff1681565b600160009054906101000a900473ffffffffffffffffffffffffffffffffffffffff1681565b600160009054906101000a900473ffffffffffffffffffffffffffffffffffffffff1673ffffffffffffffffffffffffffffffffffffffff163373ffffffffffffffffffffffffffffffffffffffff16146103ad576040517f08c379a00000000000000000000000000000000000000000000000000000000081526004016103a490610cb5565b60405180910390fd5b6001600560006101000a81548160ff021916908315150217905550600260009054906101000a900473ffffffffffffffffffffffffffffffffffffffff1673ffffffffffffffffffffffffffffffffffffffff166108fc479081150290604051600060405180830381858888f19350505050158015610430573d6000803e3d6000fd5b50565b600160009054906101000a900473ffffffffffffffffffffffffffffffffffffffff1673ffffffffffffffffffffffffffffffffffffffff163373ffffffffffffffffffffffffffffffffffffffff16036104a8576001600560016101000a81548160ff02191690831515021790555061051a565b600260009054906101000a900473ffffffffffffffffffffffffffffffffffffffff1673ffffffffffffffffffffffffffffffffffffffff163373ffffffffffffffffffffffffffffffffffffffff1603610519576001600560026101000a81548160ff0219169083151502179055505b5b600560019054906101000a900460ff1680156105425750600560029054906101000a900460ff165b15610563576000600560006101000a81548160ff0219169083151502179055505b565b600560029054906101000a900460ff1681565b60035481565b60005481565b600080600080600080600080600054600160009054906101000a900473ffffffffffffffffffffffffffffffffffffffff16600260009054906101000a900473ffffffffffffffffffffffffffffffffffffffff16600354600454600560009054906101000a900460ff16600560019054906101000a900460ff16600560029054906101000a900460ff16975097509750975097509750975097509091929394959697565b600260009054906101000a900473ffffffffffffffffffffffffffffffffffffffff1681565b600260009054906101000a900473ffffffffffffffffffffffffffffffffffffffff1673ffffffffffffffffffffffffffffffffffffffff163373ffffffffffffffffffffffffffffffffffffffff16146106df576040517f08c379a00000000000000000000000000000000000000000000000000000000081526004016106d690610d47565b60405180910390fd5b600560009054906101000a900460ff161561072f576040517f08c379a000000000000000000000000000000000000000000000000000000000815260040161072690610db3565b60405180910390fd5b6004543414610773576040517f08c379a000000000000000000000000000000000000000000000000000000000815260040161076a90610e1f565b60405180910390fd5b60035442106107b7576040517f08c379a00000000000000000000000000000000000000000000000000000000081526004016107ae90610e8b565b60405180910390fd5b565b600160009054906101000a900473ffffffffffffffffffffffffffffffffffffffff1673ffffffffffffffffffffffffffffffffffffffff163373ffffffffffffffffffffffffffffffffffffffff1614610849576040517f08c379a000000000000000000000000000000000000000000000000000000000815260040161084090610cb5565b60405180910390fd5b600560009054906101000a900460ff1615610899576040517f08c379a000000000000000000000000000000000000000000000000000000000815260040161089090610db3565b60405180910390fd5b600260009054906101000a900473ffffffffffffffffffffffffffffffffffffffff1673ffffffffffffffffffffffffffffffffffffffff166108fc479081150290604051600060405180830381858888f19350505050158015610901573d6000803e3d6000fd5b50565b60045481565b600560019054906101000a900460ff1681565b8360008190555082600260006101000a81548173ffffffffffffffffffffffffffffffffffffffff021916908373ffffffffffffffffffffffffffffffffffffffff16021790555081600381905550806004819055506000600560006101000a81548160ff0219169083151502179055506000600560016101000a81548160ff0219169083151502179055506000600560026101000a81548160ff02191690831515021790555050505050565b60008115159050919050565b6109df816109ca565b82525050565b60006020820190506109fa60008301846109d6565b92915050565b600073ffffffffffffffffffffffffffffffffffffffff82169050919050565b6000610a2b82610a00565b9050919050565b610a3b81610a20565b82525050565b6000602082019050610a566000830184610a32565b92915050565b6000819050919050565b610a6f81610a5c565b82525050565b6000602082019050610a8a6000830184610a66565b92915050565b6000819050919050565b610aa381610a90565b82525050565b6000602082019050610abe6000830184610a9a565b92915050565b600061010082019050610ada600083018b610a9a565b610ae7602083018a610a32565b610af46040830189610a32565b610b016060830188610a66565b610b0e6080830187610a66565b610b1b60a08301866109d6565b610b2860c08301856109d6565b610b3560e08301846109d6565b9998505050505050505050565b600080fd5b610b5081610a90565b8114610b5b57600080fd5b50565b600081359050610b6d81610b47565b92915050565b610b7c81610a20565b8114610b8757600080fd5b50565b600081359050610b9981610b73565b92915050565b610ba881610a5c565b8114610bb357600080fd5b50565b600081359050610bc581610b9f565b92915050565b60008060008060808587031215610be557610be4610b42565b5b6000610bf387828801610b5e565b9450506020610c0487828801610b8a565b9350506040610c1587828801610bb6565b9250506060610c2687828801610bb6565b91505092959194509250565b600082825260208201905092915050565b7f4f6e6c79206272616e6420636f6d70616e792063616e20706572666f726d207460008201527f68697320616374696f6e2e000000000000000000000000000000000000000000602082015250565b6000610c9f602b83610c32565b9150610caa82610c43565b604082019050919050565b60006020820190508181036000830152610cce81610c92565b9050919050565b7f4f6e6c7920696e666c75656e6365722063616e20706572666f726d207468697360008201527f20616374696f6e2e000000000000000000000000000000000000000000000000602082015250565b6000610d31602883610c32565b9150610d3c82610cd5565b604082019050919050565b60006020820190508181036000830152610d6081610d24565b9050919050565b7f436f6e747261637420686173206265656e207465726d696e617465642e000000600082015250565b6000610d9d601d83610c32565b9150610da882610d67565b602082019050919050565b60006020820190508181036000830152610dcc81610d90565b9050919050565b7f496e76616c6964207061796d656e7420616d6f756e742e000000000000000000600082015250565b6000610e09601783610c32565b9150610e1482610dd3565b602082019050919050565b60006020820190508181036000830152610e3881610dfc565b9050919050565b7f436f6e74726163742068617320657870697265642e0000000000000000000000600082015250565b6000610e75601583610c32565b9150610e8082610e3f565b602082019050919050565b60006020820190508181036000830152610ea481610e68565b905091905056fea26469706673582212205935b2f945886d1e3e69c6b3b7d6cc42b5256f3ecee18456591afe76d1b1d1c764736f6c63430008110033",
  "immutableReferences": {},
  "source": "pragma solidity >=0.4.22 <0.9.0;\r\n\r\ncontract InfluencerMarketingContract {\r\n    \r\n    bytes32 public contractRef;\r\n    address payable public brandCom;\r\n    address payable public influencer;\r\n    uint public contractDuration;\r\n    uint public contractValue;\r\n    bool public contractTerminated;\r\n    bool public brandComApproved;\r\n    bool public influencerApproved;\r\n    \r\n    modifier onlybrandCom() {\r\n        require(msg.sender == brandCom, \"Only brand company can perform this action.\");\r\n        _;\r\n    }\r\n    \r\n    modifier onlyInfluencer() {\r\n        require(msg.sender == influencer, \"Only influencer can perform this action.\");\r\n        _;\r\n    }\r\n    \r\n    constructor(){\r\n        brandCom = payable(msg.sender);\r\n    }\r\n\r\n    function buildContract(bytes32 _contractRef, address payable _influencer, uint _duration, uint _value) public {\r\n        contractRef = _contractRef;\r\n        influencer = _influencer;\r\n        contractDuration = _duration;\r\n        contractValue = _value;\r\n        contractTerminated = false;\r\n        brandComApproved = false;\r\n        influencerApproved = false;\r\n    }\r\n    \r\n    function approveContract() public {\r\n        if (msg.sender == brandCom) {\r\n            brandComApproved = true;\r\n        } else if (msg.sender == influencer) {\r\n            influencerApproved = true;\r\n        }\r\n        if (brandComApproved && influencerApproved) {\r\n            contractTerminated = false;\r\n        }\r\n    }\r\n    \r\n    function terminateContract() public onlybrandCom {\r\n        contractTerminated = true;\r\n        influencer.transfer(address(this).balance);\r\n    }\r\n    \r\n    function submitWork() public onlyInfluencer payable {\r\n        require(!contractTerminated, \"Contract has been terminated.\");\r\n        require(msg.value == contractValue, \"Invalid payment amount.\");\r\n        require(block.timestamp < contractDuration, \"Contract has expired.\");\r\n        // Perform work\r\n    }\r\n    \r\n    function releasePayment() public onlybrandCom {\r\n        require(!contractTerminated, \"Contract has been terminated.\");\r\n        influencer.transfer(address(this).balance);\r\n    }\r\n    \r\n    function getContractDetails() public view returns (bytes32, address payable, address payable, uint, uint, bool, bool, bool) {\r\n        return (contractRef, brandCom, influencer, contractDuration, contractValue, contractTerminated, brandComApproved, influencerApproved);\r\n    }\r\n    \r\n}\r\n",
  "sourcePath": "C:\\Users\\Xin Le\\Documents\\IEEE NTU iNTUition\\kolverse-test\\backend\\contracts\\InfluencerMarketingContract.sol",
  "compiler": {
    "name": "solc",
    "version": "0.8.17+commit.8df45f5f.Emscripten.clang"
  },
  "schemaVersion": "3.4.12",
  "updatedAt": "2023-02-24T04:12:41.404Z",
  "networkType": "ethereum",
  "devdoc": {
    "kind": "dev",
    "methods": {},
    "version": 1
  },
  "userdoc": {
    "kind": "user",
    "methods": {},
    "version": 1
  }
}